{
  "contractName": "MultiSigWallet",
  "abi": [
    {
      "constant": true,
      "inputs": [],
      "name": "MIN_SIGNATURES",
      "outputs": [
        {
          "name": "",
          "type": "uint256"
        }
      ],
      "payable": false,
      "stateMutability": "view",
      "type": "function"
    },
    {
      "inputs": [],
      "payable": false,
      "stateMutability": "nonpayable",
      "type": "constructor"
    },
    {
      "payable": true,
      "stateMutability": "payable",
      "type": "fallback"
    },
    {
      "anonymous": false,
      "inputs": [
        {
          "indexed": false,
          "name": "from",
          "type": "address"
        },
        {
          "indexed": false,
          "name": "amount",
          "type": "uint256"
        }
      ],
      "name": "LogDepositFunds",
      "type": "event"
    },
    {
      "anonymous": false,
      "inputs": [
        {
          "indexed": false,
          "name": "from",
          "type": "address"
        },
        {
          "indexed": false,
          "name": "to",
          "type": "address"
        },
        {
          "indexed": false,
          "name": "amount",
          "type": "uint256"
        },
        {
          "indexed": false,
          "name": "transactionId",
          "type": "uint256"
        }
      ],
      "name": "LogTransactionCreated",
      "type": "event"
    },
    {
      "anonymous": false,
      "inputs": [
        {
          "indexed": false,
          "name": "from",
          "type": "address"
        },
        {
          "indexed": false,
          "name": "to",
          "type": "address"
        },
        {
          "indexed": false,
          "name": "amount",
          "type": "uint256"
        },
        {
          "indexed": false,
          "name": "transactionId",
          "type": "uint256"
        }
      ],
      "name": "LogTransactionCompleted",
      "type": "event"
    },
    {
      "anonymous": false,
      "inputs": [
        {
          "indexed": false,
          "name": "by",
          "type": "address"
        },
        {
          "indexed": false,
          "name": "transactionId",
          "type": "uint256"
        }
      ],
      "name": "LogTransactionSigned",
      "type": "event"
    },
    {
      "constant": false,
      "inputs": [
        {
          "name": "owner",
          "type": "address"
        }
      ],
      "name": "addOwner",
      "outputs": [],
      "payable": false,
      "stateMutability": "nonpayable",
      "type": "function"
    },
    {
      "constant": false,
      "inputs": [
        {
          "name": "owner",
          "type": "address"
        }
      ],
      "name": "removeOwner",
      "outputs": [],
      "payable": false,
      "stateMutability": "nonpayable",
      "type": "function"
    },
    {
      "constant": false,
      "inputs": [
        {
          "name": "amount",
          "type": "uint256"
        }
      ],
      "name": "withdraw",
      "outputs": [],
      "payable": false,
      "stateMutability": "nonpayable",
      "type": "function"
    },
    {
      "constant": false,
      "inputs": [
        {
          "name": "to",
          "type": "address"
        },
        {
          "name": "amount",
          "type": "uint256"
        }
      ],
      "name": "transferTo",
      "outputs": [],
      "payable": false,
      "stateMutability": "nonpayable",
      "type": "function"
    },
    {
      "constant": true,
      "inputs": [],
      "name": "getPendingTransactions",
      "outputs": [
        {
          "name": "",
          "type": "uint256[]"
        }
      ],
      "payable": false,
      "stateMutability": "view",
      "type": "function"
    },
    {
      "constant": false,
      "inputs": [
        {
          "name": "transactionId",
          "type": "uint256"
        }
      ],
      "name": "signTransaction",
      "outputs": [],
      "payable": false,
      "stateMutability": "nonpayable",
      "type": "function"
    },
    {
      "constant": false,
      "inputs": [
        {
          "name": "transactionId",
          "type": "uint256"
        }
      ],
      "name": "deleteTransaction",
      "outputs": [],
      "payable": false,
      "stateMutability": "nonpayable",
      "type": "function"
    },
    {
      "constant": true,
      "inputs": [],
      "name": "walletBalance",
      "outputs": [
        {
          "name": "",
          "type": "uint256"
        }
      ],
      "payable": false,
      "stateMutability": "view",
      "type": "function"
    }
  ],
  "bytecode": "0x6060604052341561000f57600080fd5b336000806101000a81548173ffffffffffffffffffffffffffffffffffffffff021916908373ffffffffffffffffffffffffffffffffffffffff16021790555061105d8061005e6000396000f300606060405260043610610098576000357c0100000000000000000000000000000000000000000000000000000000900463ffffffff168062e9c00614610105578063173825d9146101285780631a179692146101615780632ccb1b301461018a5780632e1a7d4d146101cc5780635d9ec210146101ef5780637065cb4814610212578063cd0a314b1461024b578063d11db83f14610274575b7ff6f2b636362687b37aada5665bb8520f853e9418ab654e1d7c011d46d977eb983334604051808373ffffffffffffffffffffffffffffffffffffffff1673ffffffffffffffffffffffffffffffffffffffff1681526020018281526020019250505060405180910390a1005b341561011057600080fd5b61012660048080359060200190919050506102de565b005b341561013357600080fd5b61015f600480803573ffffffffffffffffffffffffffffffffffffffff169060200190919050506104ee565b005b341561016c57600080fd5b6101746105a5565b6040518082815260200191505060405180910390f35b341561019557600080fd5b6101ca600480803573ffffffffffffffffffffffffffffffffffffffff169060200190919080359060200190919050506105aa565b005b34156101d757600080fd5b6101ed60048080359060200190919050506108d4565b005b34156101fa57600080fd5b61021060048080359060200190919050506108e1565b005b341561021d57600080fd5b610249600480803573ffffffffffffffffffffffffffffffffffffffff16906020019091905050610d61565b005b341561025657600080fd5b61025e610e17565b6040518082815260200191505060405180910390f35b341561027f57600080fd5b610287610e36565b6040518080602001828103825283818151815260200191508051906020019060200280838360005b838110156102ca5780820151818401526020810190506102af565b505050509050019250505060405180910390f35b6000806000809054906101000a900473ffffffffffffffffffffffffffffffffffffffff1673ffffffffffffffffffffffffffffffffffffffff163373ffffffffffffffffffffffffffffffffffffffff16148061038a575060018060003373ffffffffffffffffffffffffffffffffffffffff1673ffffffffffffffffffffffffffffffffffffffff16815260200190815260200160002060009054906101000a900460ff1660ff16145b151561039557600080fd5b60009150600090505b60048054905081101561042d578160ff16600114156103f8576004818154811015156103c657fe5b9060005260206000209001546004600183038154811015156103e457fe5b906000526020600020900181905550610420565b60048181548110151561040757fe5b90600052602060002090015483141561041f57600191505b5b808060010191505061039e565b600460016004805490500381548110151561044457fe5b90600052602060002090016000905560048054809190600190036104689190610f48565b5060036000848152602001908152602001600020600080820160006101000a81549073ffffffffffffffffffffffffffffffffffffffff02191690556001820160006101000a81549073ffffffffffffffffffffffffffffffffffffffff021916905560028201600090556003820160006101000a81549060ff02191690555050505050565b6000809054906101000a900473ffffffffffffffffffffffffffffffffffffffff1673ffffffffffffffffffffffffffffffffffffffff163373ffffffffffffffffffffffffffffffffffffffff1614151561054957600080fd5b6000600160008373ffffffffffffffffffffffffffffffffffffffff1673ffffffffffffffffffffffffffffffffffffffff16815260200190815260200160002060006101000a81548160ff021916908360ff16021790555050565b600281565b60006105b4610f74565b6000809054906101000a900473ffffffffffffffffffffffffffffffffffffffff1673ffffffffffffffffffffffffffffffffffffffff163373ffffffffffffffffffffffffffffffffffffffff16148061065d575060018060003373ffffffffffffffffffffffffffffffffffffffff1673ffffffffffffffffffffffffffffffffffffffff16815260200190815260200160002060009054906101000a900460ff1660ff16145b151561066857600080fd5b823073ffffffffffffffffffffffffffffffffffffffff16311015151561068e57600080fd5b6002600081548092919060010191905055915033816000019073ffffffffffffffffffffffffffffffffffffffff16908173ffffffffffffffffffffffffffffffffffffffff168152505083816020019073ffffffffffffffffffffffffffffffffffffffff16908173ffffffffffffffffffffffffffffffffffffffff1681525050828160400181815250506000816060019060ff16908160ff1681525050806003600084815260200190815260200160002060008201518160000160006101000a81548173ffffffffffffffffffffffffffffffffffffffff021916908373ffffffffffffffffffffffffffffffffffffffff16021790555060208201518160010160006101000a81548173ffffffffffffffffffffffffffffffffffffffff021916908373ffffffffffffffffffffffffffffffffffffffff1602179055506040820151816002015560608201518160030160006101000a81548160ff021916908360ff160217905550905050600480548060010182816108129190610fcc565b9160005260206000209001600084909190915055507fbaaf27b820847aa9ec5fc88a32de3d062f6aa0f100cbb9440a9cf95680f9ba5033858585604051808573ffffffffffffffffffffffffffffffffffffffff1673ffffffffffffffffffffffffffffffffffffffff1681526020018473ffffffffffffffffffffffffffffffffffffffff1673ffffffffffffffffffffffffffffffffffffffff16815260200183815260200182815260200194505050505060405180910390a150505050565b6108de33826105aa565b50565b60008060009054906101000a900473ffffffffffffffffffffffffffffffffffffffff1673ffffffffffffffffffffffffffffffffffffffff163373ffffffffffffffffffffffffffffffffffffffff16148061098c575060018060003373ffffffffffffffffffffffffffffffffffffffff1673ffffffffffffffffffffffffffffffffffffffff16815260200190815260200160002060009054906101000a900460ff1660ff16145b151561099757600080fd5b6003600083815260200190815260200160002090508060000160009054906101000a900473ffffffffffffffffffffffffffffffffffffffff1673ffffffffffffffffffffffffffffffffffffffff166000141515156109f657600080fd5b8060000160009054906101000a900473ffffffffffffffffffffffffffffffffffffffff1673ffffffffffffffffffffffffffffffffffffffff163373ffffffffffffffffffffffffffffffffffffffff1614151515610a5557600080fd5b60018160040160003373ffffffffffffffffffffffffffffffffffffffff1673ffffffffffffffffffffffffffffffffffffffff16815260200190815260200160002060009054906101000a900460ff1660ff1614151515610ab657600080fd5b60018160040160003373ffffffffffffffffffffffffffffffffffffffff1673ffffffffffffffffffffffffffffffffffffffff16815260200190815260200160002060006101000a81548160ff021916908360ff16021790555080600301600081819054906101000a900460ff168092919060010191906101000a81548160ff021916908360ff160217905550507f231b809043e3313bf6855d73725ade6236c3dcd7fb132498a4b4d6a388ec48cd3383604051808373ffffffffffffffffffffffffffffffffffffffff1673ffffffffffffffffffffffffffffffffffffffff1681526020018281526020019250505060405180910390a160028160030160009054906101000a900460ff1660ff16101515610d5d5780600201543073ffffffffffffffffffffffffffffffffffffffff163110151515610bf857600080fd5b8060010160009054906101000a900473ffffffffffffffffffffffffffffffffffffffff1673ffffffffffffffffffffffffffffffffffffffff166108fc82600201549081150290604051600060405180830381858888f193505050501515610c6057600080fd5b7f1ade3a2b2a2032d1c30374c6ae8bd4452802c86a66ff97c31cd1f674337fe7a48160000160009054906101000a900473ffffffffffffffffffffffffffffffffffffffff168260010160009054906101000a900473ffffffffffffffffffffffffffffffffffffffff16836002015485604051808573ffffffffffffffffffffffffffffffffffffffff1673ffffffffffffffffffffffffffffffffffffffff1681526020018473ffffffffffffffffffffffffffffffffffffffff1673ffffffffffffffffffffffffffffffffffffffff16815260200183815260200182815260200194505050505060405180910390a1610d5c826102de565b5b5050565b6000809054906101000a900473ffffffffffffffffffffffffffffffffffffffff1673ffffffffffffffffffffffffffffffffffffffff163373ffffffffffffffffffffffffffffffffffffffff16141515610dbc57600080fd5b60018060008373ffffffffffffffffffffffffffffffffffffffff1673ffffffffffffffffffffffffffffffffffffffff16815260200190815260200160002060006101000a81548160ff021916908360ff16021790555050565b60003073ffffffffffffffffffffffffffffffffffffffff1631905090565b610e3e610ff8565b6000809054906101000a900473ffffffffffffffffffffffffffffffffffffffff1673ffffffffffffffffffffffffffffffffffffffff163373ffffffffffffffffffffffffffffffffffffffff161480610ee7575060018060003373ffffffffffffffffffffffffffffffffffffffff1673ffffffffffffffffffffffffffffffffffffffff16815260200190815260200160002060009054906101000a900460ff1660ff16145b1515610ef257600080fd5b6004805480602002602001604051908101604052809291908181526020018280548015610f3e57602002820191906000526020600020905b815481526020019060010190808311610f2a575b5050505050905090565b815481835581811511610f6f57818360005260206000209182019101610f6e919061100c565b5b505050565b608060405190810160405280600073ffffffffffffffffffffffffffffffffffffffff168152602001600073ffffffffffffffffffffffffffffffffffffffff16815260200160008152602001600060ff1681525090565b815481835581811511610ff357818360005260206000209182019101610ff2919061100c565b5b505050565b602060405190810160405280600081525090565b61102e91905b8082111561102a576000816000905550600101611012565b5090565b905600a165627a7a72305820f5e74a7aab1e9dc230b4cf5dfb9f2eb692126c4eb2e46d618c23883aa44bd9ae0029",
  "source": "pragma solidity 0.4.21;\r\n\r\n\r\ncontract MultiSigWallet {\r\n\r\n    address private _owner;\r\n    mapping(address => uint8) private _owners;\r\n\r\n    uint constant public MIN_SIGNATURES = 2;\r\n    uint private _transactionIdx;\r\n\r\n    struct Transaction {\r\n        address from;\r\n        address to;\r\n        uint amount;\r\n        uint8 signatureCount;\r\n        mapping (address => uint8) signatures;\r\n    }\r\n\r\n    mapping (uint => Transaction) private _transactions;\r\n    uint[] private _pendingTransactions;\r\n\r\n    modifier isOwner() {\r\n        require(msg.sender == _owner);\r\n        _;\r\n    }\r\n\r\n    modifier validOwner() {\r\n        require(msg.sender == _owner || _owners[msg.sender] == 1);\r\n        _;\r\n    }\r\n\r\n    event LogDepositFunds(address from, uint amount);\r\n    event LogTransactionCreated(address from, address to, uint amount, uint transactionId);\r\n    event LogTransactionCompleted(address from, address to, uint amount, uint transactionId);\r\n    event LogTransactionSigned(address by, uint transactionId);\r\n\r\n    function MultiSigWallet() public {\r\n        _owner = msg.sender;\r\n    }\r\n\r\n    function () public payable {\r\n        emit LogDepositFunds(msg.sender, msg.value);\r\n    }\r\n\r\n    function addOwner(address owner) public isOwner {\r\n        _owners[owner] = 1;\r\n    }\r\n\r\n    function removeOwner(address owner) public isOwner {\r\n        _owners[owner] = 0;\r\n    }\r\n\r\n    function withdraw(uint amount) public {\r\n        transferTo(msg.sender, amount);\r\n    }\r\n\r\n    function transferTo(address to, uint amount) public validOwner {\r\n        require(address(this).balance >= amount);\r\n        uint transactionId = _transactionIdx++;\r\n\r\n        Transaction memory transaction;\r\n        transaction.from = msg.sender;\r\n        transaction.to = to;\r\n        transaction.amount = amount;\r\n        transaction.signatureCount = 0;\r\n\r\n        _transactions[transactionId] = transaction;\r\n        _pendingTransactions.push(transactionId);\r\n\r\n        emit LogTransactionCreated(msg.sender, to, amount, transactionId);\r\n    }\r\n\r\n    function getPendingTransactions() public view validOwner returns (uint[]) {\r\n        return _pendingTransactions;\r\n    }\r\n\r\n    function signTransaction(uint transactionId) public validOwner {\r\n\r\n        Transaction storage transaction = _transactions[transactionId];\r\n\r\n        // Transaction must exist\r\n        require(0x0 != transaction.from);\r\n        // Creator cannot sign the transaction\r\n        require(msg.sender != transaction.from);\r\n        // Cannot sign a transaction more than once\r\n        require(transaction.signatures[msg.sender] != 1);\r\n\r\n        transaction.signatures[msg.sender] = 1;\r\n        transaction.signatureCount++;\r\n\r\n        emit LogTransactionSigned(msg.sender, transactionId);\r\n\r\n        if (transaction.signatureCount >= MIN_SIGNATURES) {\r\n            require(address(this).balance >= transaction.amount);\r\n            transaction.to.transfer(transaction.amount);\r\n            emit LogTransactionCompleted(transaction.from, transaction.to, transaction.amount, transactionId);\r\n            deleteTransaction(transactionId);\r\n        }\r\n    }\r\n\r\n    function deleteTransaction(uint transactionId) public validOwner {\r\n        uint8 replace = 0;\r\n        for (uint i = 0; i < _pendingTransactions.length; i++) {\r\n            if (1 == replace) {\r\n                _pendingTransactions[i-1] = _pendingTransactions[i];\r\n            } else if (transactionId == _pendingTransactions[i]) {\r\n                replace = 1;\r\n            }\r\n        }\r\n        delete _pendingTransactions[_pendingTransactions.length - 1];\r\n        _pendingTransactions.length--;\r\n        delete _transactions[transactionId];\r\n    }\r\n\r\n    function walletBalance() public constant returns (uint) {\r\n        return address(this).balance;\r\n    }\r\n}",
  "sourcePath": "C:\\Users\\ricox\\Documents\\GitHub\\projects\\smart-contracts\\multisigwallet\\contracts\\multisig.sol",
  "compiler": {
    "name": "solc",
    "version": "0.4.21+commit.dfe3193c.Emscripten.clang"
  },
  "schemaVersion": "2.0.0",
  "updatedAt": "2018-04-04T22:59:41.292Z"
}